{
  "_format": "hh-sol-artifact-1",
  "contractName": "Transfer",
  "sourceName": "contracts/Transfer.sol",
  "abi": [
    {
      "inputs": [],
      "name": "BagBal",
      "outputs": [
        {
          "internalType": "uint256",
          "name": "",
          "type": "uint256"
        }
      ],
      "stateMutability": "view",
      "type": "function"
    },
    {
      "inputs": [
        {
          "internalType": "string",
          "name": "_name",
          "type": "string"
        },
        {
          "internalType": "string",
          "name": "_mail",
          "type": "string"
        },
        {
          "internalType": "uint256",
          "name": "_bal",
          "type": "uint256"
        },
        {
          "internalType": "string",
          "name": "_keyword",
          "type": "string"
        }
      ],
      "name": "Donation",
      "outputs": [],
      "stateMutability": "nonpayable",
      "type": "function"
    },
    {
      "inputs": [],
      "name": "bagBalance",
      "outputs": [
        {
          "internalType": "uint256",
          "name": "",
          "type": "uint256"
        }
      ],
      "stateMutability": "view",
      "type": "function"
    },
    {
      "inputs": [],
      "name": "deposit",
      "outputs": [],
      "stateMutability": "payable",
      "type": "function"
    },
    {
      "inputs": [
        {
          "internalType": "address",
          "name": "_sender",
          "type": "address"
        }
      ],
      "name": "getInfo",
      "outputs": [
        {
          "internalType": "uint256",
          "name": "",
          "type": "uint256"
        }
      ],
      "stateMutability": "view",
      "type": "function"
    },
    {
      "inputs": [],
      "name": "myBalance",
      "outputs": [
        {
          "internalType": "uint256",
          "name": "",
          "type": "uint256"
        }
      ],
      "stateMutability": "view",
      "type": "function"
    }
  ],
  "bytecode": "0x6080604052600060025534801561001557600080fd5b50610a55806100256000396000f3fe6080604052600436106100555760003560e01c806363d489441461005a578063aa3127ee14610085578063c9116b69146100b0578063d0e30db0146100db578063d10f50fe146100e5578063ffdd5cf11461010e575b600080fd5b34801561006657600080fd5b5061006f61014b565b60405161007c919061036f565b60405180910390f35b34801561009157600080fd5b5061009a610151565b6040516100a7919061036f565b60405180910390f35b3480156100bc57600080fd5b506100c561015a565b6040516100d2919061036f565b60405180910390f35b6100e3610160565b005b3480156100f157600080fd5b5061010c60048036038101906101079190610510565b61021c565b005b34801561011a57600080fd5b5061013560048036038101906101309190610629565b61030a565b604051610142919061036f565b60405180910390f35b60005481565b60008054905090565b60015481565b600034116101a3576040517f08c379a000000000000000000000000000000000000000000000000000000000815260040161019a906106b3565b60405180910390fd5b346000808282546101b49190610702565b9250508190555034600160008282546101cd9190610702565b92505081905550600254600360003373ffffffffffffffffffffffffffffffffffffffff1673ffffffffffffffffffffffffffffffffffffffff16815260200190815260200160002081905550565b6040518060a001604052808581526020013373ffffffffffffffffffffffffffffffffffffffff168152602001848152602001838152602001828152506005600060025481526020019081526020016000206000820151816000019081610283919061094d565b5060208201518160010160006101000a81548173ffffffffffffffffffffffffffffffffffffffff021916908373ffffffffffffffffffffffffffffffffffffffff16021790555060408201518160020190816102e0919061094d565b50606082015181600301556080820151816004019081610300919061094d565b5090505050505050565b6000339150600460008373ffffffffffffffffffffffffffffffffffffffff1673ffffffffffffffffffffffffffffffffffffffff168152602001908152602001600020549050919050565b6000819050919050565b61036981610356565b82525050565b60006020820190506103846000830184610360565b92915050565b6000604051905090565b600080fd5b600080fd5b600080fd5b600080fd5b6000601f19601f8301169050919050565b7f4e487b7100000000000000000000000000000000000000000000000000000000600052604160045260246000fd5b6103f1826103a8565b810181811067ffffffffffffffff821117156104105761040f6103b9565b5b80604052505050565b600061042361038a565b905061042f82826103e8565b919050565b600067ffffffffffffffff82111561044f5761044e6103b9565b5b610458826103a8565b9050602081019050919050565b82818337600083830152505050565b600061048761048284610434565b610419565b9050828152602081018484840111156104a3576104a26103a3565b5b6104ae848285610465565b509392505050565b600082601f8301126104cb576104ca61039e565b5b81356104db848260208601610474565b91505092915050565b6104ed81610356565b81146104f857600080fd5b50565b60008135905061050a816104e4565b92915050565b6000806000806080858703121561052a57610529610394565b5b600085013567ffffffffffffffff81111561054857610547610399565b5b610554878288016104b6565b945050602085013567ffffffffffffffff81111561057557610574610399565b5b610581878288016104b6565b9350506040610592878288016104fb565b925050606085013567ffffffffffffffff8111156105b3576105b2610399565b5b6105bf878288016104b6565b91505092959194509250565b600073ffffffffffffffffffffffffffffffffffffffff82169050919050565b60006105f6826105cb565b9050919050565b610606816105eb565b811461061157600080fd5b50565b600081359050610623816105fd565b92915050565b60006020828403121561063f5761063e610394565b5b600061064d84828501610614565b91505092915050565b600082825260208201905092915050565b7f4465706f736974206d6f7265207468616e205a45524f20000000000000000000600082015250565b600061069d601783610656565b91506106a882610667565b602082019050919050565b600060208201905081810360008301526106cc81610690565b9050919050565b7f4e487b7100000000000000000000000000000000000000000000000000000000600052601160045260246000fd5b600061070d82610356565b915061071883610356565b92508282019050808211156107305761072f6106d3565b5b92915050565b600081519050919050565b7f4e487b7100000000000000000000000000000000000000000000000000000000600052602260045260246000fd5b6000600282049050600182168061078857607f821691505b60208210810361079b5761079a610741565b5b50919050565b60008190508160005260206000209050919050565b60006020601f8301049050919050565b600082821b905092915050565b6000600883026108037fffffffffffffffffffffffffffffffffffffffffffffffffffffffffffffffff826107c6565b61080d86836107c6565b95508019841693508086168417925050509392505050565b6000819050919050565b600061084a61084561084084610356565b610825565b610356565b9050919050565b6000819050919050565b6108648361082f565b61087861087082610851565b8484546107d3565b825550505050565b600090565b61088d610880565b61089881848461085b565b505050565b5b818110156108bc576108b1600082610885565b60018101905061089e565b5050565b601f821115610901576108d2816107a1565b6108db846107b6565b810160208510156108ea578190505b6108fe6108f6856107b6565b83018261089d565b50505b505050565b600082821c905092915050565b600061092460001984600802610906565b1980831691505092915050565b600061093d8383610913565b9150826002028217905092915050565b61095682610736565b67ffffffffffffffff81111561096f5761096e6103b9565b5b6109798254610770565b6109848282856108c0565b600060209050601f8311600181146109b757600084156109a5578287015190505b6109af8582610931565b865550610a17565b601f1984166109c5866107a1565b60005b828110156109ed578489015182556001820191506020850194506020810190506109c8565b86831015610a0a5784890151610a06601f891682610913565b8355505b6001600288020188555050505b50505050505056fea264697066735822122003d7c26155449a7c466eac483744bcf02bf896ca591473c6eed702068e6af1e664736f6c63430008120033",
  "linkReferences": {},
  "deployedLinkReferences": {}
}