{
  "_format": "hh-sol-artifact-1",
  "contractName": "Transfer",
  "sourceName": "contracts/Transfer.sol",
  "abi": [
    {
      "inputs": [
        {
          "internalType": "string",
          "name": "_name",
          "type": "string"
        },
        {
          "internalType": "string",
          "name": "_mail",
          "type": "string"
        },
        {
          "internalType": "uint256",
          "name": "_bal",
          "type": "uint256"
        },
        {
          "internalType": "string",
          "name": "_keyword",
          "type": "string"
        }
      ],
      "name": "Donation",
      "outputs": [],
      "stateMutability": "payable",
      "type": "function"
    },
    {
      "inputs": [],
      "name": "bagBalance",
      "outputs": [
        {
          "internalType": "uint256",
          "name": "",
          "type": "uint256"
        }
      ],
      "stateMutability": "view",
      "type": "function"
    },
    {
      "inputs": [
        {
          "internalType": "uint256",
          "name": "_id",
          "type": "uint256"
        }
      ],
      "name": "getInfo",
      "outputs": [
        {
          "internalType": "string",
          "name": "",
          "type": "string"
        },
        {
          "internalType": "address",
          "name": "",
          "type": "address"
        },
        {
          "internalType": "string",
          "name": "",
          "type": "string"
        },
        {
          "internalType": "uint256",
          "name": "",
          "type": "uint256"
        },
        {
          "internalType": "string",
          "name": "",
          "type": "string"
        }
      ],
      "stateMutability": "view",
      "type": "function"
    }
  ],
  "bytecode": "0x6080604052600060015534801561001557600080fd5b50610c8b806100256000396000f3fe6080604052600436106100345760003560e01c80631a3cd59a1461003957806363d489441461007a578063d10f50fe146100a5575b600080fd5b34801561004557600080fd5b50610060600480360381019061005b91906104e0565b6100c1565b6040516100719594939291906105ed565b60405180910390f35b34801561008657600080fd5b5061008f610330565b60405161009c9190610655565b60405180910390f35b6100bf60048036038101906100ba91906107a5565b610336565b005b606060006060600060606000600260008881526020019081526020016000206040518060a00160405290816000820180546100fb9061088f565b80601f01602080910402602001604051908101604052809291908181526020018280546101279061088f565b80156101745780601f1061014957610100808354040283529160200191610174565b820191906000526020600020905b81548152906001019060200180831161015757829003601f168201915b505050505081526020016001820160009054906101000a900473ffffffffffffffffffffffffffffffffffffffff1673ffffffffffffffffffffffffffffffffffffffff1673ffffffffffffffffffffffffffffffffffffffff1681526020016002820180546101e39061088f565b80601f016020809104026020016040519081016040528092919081815260200182805461020f9061088f565b801561025c5780601f106102315761010080835404028352916020019161025c565b820191906000526020600020905b81548152906001019060200180831161023f57829003601f168201915b505050505081526020016003820154815260200160048201805461027f9061088f565b80601f01602080910402602001604051908101604052809291908181526020018280546102ab9061088f565b80156102f85780601f106102cd576101008083540402835291602001916102f8565b820191906000526020600020905b8154815290600101906020018083116102db57829003601f168201915b505050505081525050905080600001518160200151826040015183606001518460800151955095509550955095505091939590929450565b60005481565b348214610378576040517f08c379a000000000000000000000000000000000000000000000000000000000815260040161036f9061090c565b60405180910390fd5b6040518060a001604052808581526020013373ffffffffffffffffffffffffffffffffffffffff1681526020018481526020018381526020018281525060026000600154815260200190815260200160002060008201518160000190816103df9190610ad8565b5060208201518160010160006101000a81548173ffffffffffffffffffffffffffffffffffffffff021916908373ffffffffffffffffffffffffffffffffffffffff160217905550604082015181600201908161043c9190610ad8565b5060608201518160030155608082015181600401908161045c9190610ad8565b50905050346000808282546104719190610bd9565b925050819055506001600081548092919061048b90610c0d565b919050555050505050565b6000604051905090565b600080fd5b600080fd5b6000819050919050565b6104bd816104aa565b81146104c857600080fd5b50565b6000813590506104da816104b4565b92915050565b6000602082840312156104f6576104f56104a0565b5b6000610504848285016104cb565b91505092915050565b600081519050919050565b600082825260208201905092915050565b60005b8381101561054757808201518184015260208101905061052c565b60008484015250505050565b6000601f19601f8301169050919050565b600061056f8261050d565b6105798185610518565b9350610589818560208601610529565b61059281610553565b840191505092915050565b600073ffffffffffffffffffffffffffffffffffffffff82169050919050565b60006105c88261059d565b9050919050565b6105d8816105bd565b82525050565b6105e7816104aa565b82525050565b600060a08201905081810360008301526106078188610564565b905061061660208301876105cf565b81810360408301526106288186610564565b905061063760608301856105de565b81810360808301526106498184610564565b90509695505050505050565b600060208201905061066a60008301846105de565b92915050565b600080fd5b600080fd5b7f4e487b7100000000000000000000000000000000000000000000000000000000600052604160045260246000fd5b6106b282610553565b810181811067ffffffffffffffff821117156106d1576106d061067a565b5b80604052505050565b60006106e4610496565b90506106f082826106a9565b919050565b600067ffffffffffffffff8211156107105761070f61067a565b5b61071982610553565b9050602081019050919050565b82818337600083830152505050565b6000610748610743846106f5565b6106da565b90508281526020810184848401111561076457610763610675565b5b61076f848285610726565b509392505050565b600082601f83011261078c5761078b610670565b5b813561079c848260208601610735565b91505092915050565b600080600080608085870312156107bf576107be6104a0565b5b600085013567ffffffffffffffff8111156107dd576107dc6104a5565b5b6107e987828801610777565b945050602085013567ffffffffffffffff81111561080a576108096104a5565b5b61081687828801610777565b9350506040610827878288016104cb565b925050606085013567ffffffffffffffff811115610848576108476104a5565b5b61085487828801610777565b91505092959194509250565b7f4e487b7100000000000000000000000000000000000000000000000000000000600052602260045260246000fd5b600060028204905060018216806108a757607f821691505b6020821081036108ba576108b9610860565b5b50919050565b7f42616c616e6365206d757374206d617463680000000000000000000000000000600082015250565b60006108f6601283610518565b9150610901826108c0565b602082019050919050565b60006020820190508181036000830152610925816108e9565b9050919050565b60008190508160005260206000209050919050565b60006020601f8301049050919050565b600082821b905092915050565b60006008830261098e7fffffffffffffffffffffffffffffffffffffffffffffffffffffffffffffffff82610951565b6109988683610951565b95508019841693508086168417925050509392505050565b6000819050919050565b60006109d56109d06109cb846104aa565b6109b0565b6104aa565b9050919050565b6000819050919050565b6109ef836109ba565b610a036109fb826109dc565b84845461095e565b825550505050565b600090565b610a18610a0b565b610a238184846109e6565b505050565b5b81811015610a4757610a3c600082610a10565b600181019050610a29565b5050565b601f821115610a8c57610a5d8161092c565b610a6684610941565b81016020851015610a75578190505b610a89610a8185610941565b830182610a28565b50505b505050565b600082821c905092915050565b6000610aaf60001984600802610a91565b1980831691505092915050565b6000610ac88383610a9e565b9150826002028217905092915050565b610ae18261050d565b67ffffffffffffffff811115610afa57610af961067a565b5b610b04825461088f565b610b0f828285610a4b565b600060209050601f831160018114610b425760008415610b30578287015190505b610b3a8582610abc565b865550610ba2565b601f198416610b508661092c565b60005b82811015610b7857848901518255600182019150602085019450602081019050610b53565b86831015610b955784890151610b91601f891682610a9e565b8355505b6001600288020188555050505b505050505050565b7f4e487b7100000000000000000000000000000000000000000000000000000000600052601160045260246000fd5b6000610be4826104aa565b9150610bef836104aa565b9250828201905080821115610c0757610c06610baa565b5b92915050565b6000610c18826104aa565b91507fffffffffffffffffffffffffffffffffffffffffffffffffffffffffffffffff8203610c4a57610c49610baa565b5b60018201905091905056fea2646970667358221220236350afbc8f6248bfc6c29856e9293a3a62bce7a637fa7887aaff76951b09f364736f6c63430008120033",
  "linkReferences": {},
  "deployedLinkReferences": {}
}